:020000040800F2
:1000000000000120E1B700086D9300087B93000811
:1000100081930008879300088D930008000000007A
:1000200000000000000000000000000093930008A2
:10003000A193000800000000ED000008AF93000845
:1000400010B5054C237833B9044B13B10448AFF312
:1000500000800123237010BD48060020000000002E
:1000600098D5000808B5034B1BB103490348AFF30B
:10007000008008BD000000004C06002098D5000854
:1000800072B634483449026841EA020101603348DB
:100090004FF00101016032484168016001688A88BF
:1000A0004FF0100342EA03028A80D1F800C00CF13D
:1000B000240C0CF1040CBCE8FF008CF309884FF011
:1000C000020C8CF31488AE4662B63047EFF3108012
:1000D00072B67047EFF3108062B6704780F31088F5
:1000E000704720484FF0805101607047EFF3108C4B
:1000F00072B61D4A126822B12DE900509047BDE842
:100100000050EFF309801EF0100F08BF20ED108B98
:1001100040F804ED20E9F01F114D4FF010082E6853
:100120003060B78827EA0807B78068682860878842
:1001300047EA080787800168B1E8F01F51F804EB2F
:100140001EF0100F08BFB1EC108B81F309888CF3FF
:100150001088704720ED00E00000FFFF1419002018
:100160000C19002004ED00E0EC0A00200000000063
:1001700001F0FF01102A2BDB10F0070F08D010F858
:10018000013B013A8B422DD010F0070F42B3F6D15C
:10019000F0B441EA012141EA014122F007047FF075
:1001A00000070023F0E80256083C85EA010586EACC
:1001B000010685FA47F5A3FA87F586FA47F6A5FA08
:1001C00087F68EB9EED1F0BC01F0FF0102F0070214
:1001D00032B110F8013B013A83EA010313B1F8D1BF
:1001E0000020704701387047002D06BF35460338A0
:1001F000073815F0010F07D1013015F4807F02BFD9
:10020000013015F4C03F0130F0BC0138704700BF29
:10021000034613F8012B002AFBD1181A0138704746
:1002200081F0004102E000BF83F0004330B54FEAA7
:1002300041044FEA430594EA050F08BF90EA020F14
:100240001FBF54EA000C55EA020C7FEA645C7FEAA7
:10025000655C00F0E2804FEA5454D4EB5555B8BFCA
:100260006D420CDD2C4480EA020281EA030382EA3B
:10027000000083EA010180EA020281EA0303362DCD
:1002800088BF30BD11F0004F4FEA01314FF4801CA0
:100290004CEA113102D0404261EB410113F0004FB2
:1002A0004FEA03334CEA133302D0524263EB430369
:1002B00094EA050F00F0A780A4F10104D5F1200E07
:1002C0000DDB02FA0EFC22FA05F2801841F1000162
:1002D00003FA0EF2801843FA05F359410EE0A5F136
:1002E00020050EF1200E012A03FA0EFC28BF4CF067
:1002F000020C43FA05F3C01851EBE37101F000451D
:1003000007D54FF0000EDCF1000C7EEB00006EEB29
:100310000101B1F5801F1BD3B1F5001F0CD34908B3
:100320005FEA30004FEA3C0C04F101044FEA44520A
:1003300012F5800F80F09A80BCF1004F08BF5FEA91
:10034000500C50F1000041EB045141EA050130BD71
:100350005FEA4C0C404141EB010111F4801FA4F114
:100360000104E9D191F0000F04BF01460020B1FA69
:1003700081F308BF2033A3F10B03B3F120020CDAA1
:100380000C3208DD02F1140CC2F10C0201FA0CF07F
:1003900021FA02F10CE002F11402D8BFC2F1200CE4
:1003A00001FA02F120FA0CFCDCBF41EA0C0190409A
:1003B000E41AA2BF01EB0451294330BD6FEA0404E3
:1003C0001F3C1CDA0C340EDC04F11404C4F12002CE
:1003D00020FA04F001FA02F340EA030021FA04F3E0
:1003E00045EA030130BDC4F10C04C4F1200220FA37
:1003F00002F001FA04F340EA0300294630BD21FA75
:1004000004F0294630BD94F0000F83F4801306BF3A
:1004100081F480110134013D4EE77FEA645C18BF2E
:100420007FEA655C29D094EA050F08BF90EA020FC5
:1004300005D054EA000C04BF1946104630BD91EABD
:10044000030F1EBF0021002030BD5FEA545C05D1C0
:100450004000494128BF41F0004130BD14F58004FF
:100460003CBF01F5801130BD01F0004545F0FE4173
:1004700041F470014FF0000030BD7FEA645C1ABFA8
:10048000194610467FEA655C1CBF0B46024650EADF
:10049000013406BF52EA033591EA030F41F400210B
:1004A00030BD00BF90F0000F04BF0021704730B591
:1004B0004FF4806404F132044FF000054FF0000166
:1004C00050E700BF90F0000F04BF0021704730B527
:1004D0004FF4806404F1320410F0004548BF4042FC
:1004E0004FF000013EE700BF42004FEAE2014FEA51
:1004F00031014FEA02701FBF12F07F4393F07F4F2C
:1005000081F06051704732F07F4208BF704793F02E
:100510007F4F04BF41F40021704730B54FF4607441
:1005200001F0004521F000411CE700BF50EA010244
:1005300008BF704730B54FF000050AE050EA0102ED
:1005400008BF704730B511F0004502D5404261EB5D
:1005500041014FF4806404F132045FEA915C3FF49E
:10056000D8AE4FF003025FEADC0C18BF03325FEA3B
:10057000DC0C18BF033202EBDC02C2F1200300FAEC
:1005800003FC20FA02F001FA03FE40EA0E0021FA11
:1005900002F11444BDE600BF70B54FF0FF0C4CF4FF
:1005A000E06C1CEA11541DBF1CEA135594EA0C0FB1
:1005B00095EA0C0F00F0DEF82C4481EA030621EAEC
:1005C0004C5123EA4C5350EA013518BF52EA033527
:1005D00041F4801143F4801338D0A0FB02CE4FF0D9
:1005E0000005E1FB02E506F00042E0FB03E54FF009
:1005F0000006E1FB03569CF0000F18BF4EF0010E01
:10060000A4F1FF04B6F5007F64F5407404D25FEAFC
:100610004E0E6D4146EB060642EAC62141EA5551AF
:100620004FEAC52040EA5E504FEACE2EB4F1FD0CF1
:1006300088BFBCF5E06F1ED8BEF1004F08BF5FEA6F
:10064000500E50F1000041EB045170BD06F0004621
:1006500046EA010140EA020081EA0301B4EB5C04CE
:10066000C2BFD4EB0C0541EA045170BD41F48011C6
:100670004FF0000E013C00F3AB8014F1360FDEBFEB
:10068000002001F0004170BDC4F10004203C35DAC7
:100690000C341BDC04F11404C4F1200500FA05F34A
:1006A00020FA04F001FA05F240EA020001F00042EB
:1006B00021F0004110EBD37021FA04F642EB060161
:1006C0005EEA430E08BF20EAD37070BDC4F10C048B
:1006D000C4F1200500FA04F320FA05F001FA04F24F
:1006E00040EA020001F0004110EBD37041F100013B
:1006F0005EEA430E08BF20EAD37070BDC4F1200546
:1007000000FA05F24EEA020E20FA04F301FA05F2AD
:1007100043EA020321FA04F001F0004121FA04F255
:1007200020EA020000EBD3705EEA430E08BF20EA25
:10073000D37070BD94F0000F0FD101F0004640005F
:1007400041EB010111F4801F08BF013CF7D041EAE1
:10075000060195F0000F18BF704703F000465200E5
:1007600043EB030313F4801F08BF013DF7D043EAB6
:100770000603704794EA0C0F0CEA135518BF95EA6C
:100780000C0F0CD050EA410618BF52EA4306D1D1F3
:1007900081EA030101F000414FF0000070BD50EA12
:1007A000410606BF1046194652EA430619D094EA9C
:1007B0000C0F02D150EA013613D195EA0C0F05D186
:1007C00052EA03361CBF104619460AD181EA0301DA
:1007D00001F0004141F0FE4141F470014FF0000092
:1007E00070BD41F0FE4141F4780170BD70B54FF02D
:1007F000FF0C4CF4E06C1CEA11541DBF1CEA1355AD
:1008000094EA0C0F95EA0C0F00F0A7F8A4EB05048E
:1008100081EA030E52EA03354FEA013100F0888085
:100820004FEA03334FF0805545EA131343EA12634E
:100830004FEA022245EA111545EA10654FEA002603
:100840000EF000419D4208BF964244F1FD0404F5BC
:10085000407402D25B084FEA3202B61A65EB030518
:100860005B084FEA32024FF480104FF4002CB6EBD5
:10087000020E75EB030E22BFB61A754640EA0C0055
:100880005B084FEA3202B6EB020E75EB030E22BF95
:10089000B61A754640EA5C005B084FEA3202B6EBD6
:1008A000020E75EB030E22BFB61A754640EA9C0095
:1008B0005B084FEA3202B6EB020E75EB030E22BF65
:1008C000B61A754640EADC0055EA060E18D04FEA23
:1008D000051545EA16754FEA06164FEAC30343EAC3
:1008E00052734FEAC2025FEA1C1CC0D111F4801F90
:1008F0000BD141EA00014FF000004FF0004CB6E789
:1009000011F4801F04BF01430020B4F1FD0C88BF27
:10091000BCF5E06F3FF6AFAEB5EB030C04BFB6EB32
:10092000020C5FEA500C50F1000041EB045170BD25
:100930000EF0004E4EEA113114EB5C04C2BFD4EB52
:100940000C0541EA045170BD41F480114FF0000ED6
:10095000013C90E645EA060E8DE60CEA135594EA52
:100960000C0F08BF95EA0C0F3FF43BAF94EA0C0F55
:100970000AD150EA01347FF434AF95EA0C0F7FF4CA
:1009800025AF104619462CE795EA0C0F06D152EA1E
:1009900003353FF4FDAE1046194622E750EA410602
:1009A00018BF52EA43067FF4C5AE50EA41047FF413
:1009B0000DAF52EA43057FF4EBAE12E74FEA410276
:1009C000B2F1E04324BFB3F5001CDCF1FE5C0DD9AD
:1009D00001F0004C4FEAC0024CEA5070B2F1004FF7
:1009E00040EB830008BF20F00100704711F0804FFA
:1009F00021D113F13872BCBF01F00040704741F4BF
:100A000080114FEA5252C2F11802C2F1200C10FAC2
:100A10000CF320FA02F018BF40F001004FEAC123A6
:100A20004FEAD32303FA0CFC40EA0C0023FA02F34A
:100A30004FEA4303CCE77FEA625307D150EA013320
:100A40001EBF4FF0FE4040F44000704701F00040F0
:100A500040F0FE4040F40000704700BF53B94AB96F
:100A6000002908BF00281CBF4FF0FF314FF0FF30B6
:100A700000F072B9ADF1080C6DE904CE00F006F893
:100A8000DDF804E0DDE9022304B070472DE9F0470A
:100A9000089E04468846002B4BD18A42154667D9EA
:100AA000B2FA82F24AB1C2F1200701FA02F320FA47
:100AB00007F7954047EA030894404FEA154E230C88
:100AC000B8FBFEF71FFA85FC0EFB178843EA0843C4
:100AD00007FB0CF1994209D9EB1807F1FF3080F0C0
:100AE0001B81994240F21881023F2B445B1AA4B249
:100AF000B3FBFEF00EFB103344EA034400FB0CFC96
:100B0000A44509D92C1900F1FF3380F00781A445D1
:100B100040F2048102382C4440EA0740A4EB0C0464
:100B200000271EB1D4400023C6E900433946BDE882
:100B3000F0878B4209D9002E00F0EB800027C6E930
:100B4000000138463946BDE8F087B3FA83F7002F35
:100B500047D18B4202D3824200F2FA80841A61EBC1
:100B6000030301209846002EE0D0C6E90048DDE7E7
:100B700002B9FFDEB2FA82F2002A40F08F80491BF0
:100B80004FEA154E1FFA85F80127B1FBFEFC230C36
:100B90000EFB1C1143EA014308FB0CF1994207D9F3
:100BA000EB180CF1FF3002D2994200F2CD8084465E
:100BB000591AA3B2B1FBFEF00EFB101443EA044431
:100BC00008FB00F8A04507D92C1900F1FF3302D229
:100BD000A04500F2B6801846A4EB080440EA0C4099
:100BE0009FE7C7F1200CBB4022FA0CFE4EEA030E31
:100BF00001FA07F420FA0CF521FA0CF34FEA1E482B
:100C00002543B3FBF8F92C0C08FB19331FFA8EFAB5
:100C100044EA034309FB0AF49C4202FA07F200FA91
:100C200007F10BD91EEB030309F1FF3080F0878039
:100C30009C4240F28480A9F1020973441B1BADB2AF
:100C4000B3FBF8F008FB103345EA034400FB0AFA53
:100C5000A24508D91EEB040400F1FF336BD2A24574
:100C600069D90238744440EA0940A0FB0289A4EB28
:100C70000A044C45C2464B4654D351D0002E69D08D
:100C8000B1EB0A0564EB030404FA0CFCFD40FC40E4
:100C90004CEA0505C6E90054002747E7C2F12003E6
:100CA00020FA03F7954001FA02F021FA03F34FEA24
:100CB000154E3843010CB3FBFEF71FFA85F80EFB07
:100CC000173341EA034107FB08F38B4204FA02F4AD
:100CD00007D9691807F1FF3C2FD28B422DD9023F6B
:100CE0002944CB1A81B2B3FBFEF00EFB103341EA6C
:100CF000034100FB08F38B4207D9691800F1FF3C60
:100D000017D28B4215D902382944C91A40EA07473D
:100D10003BE73746304609E70746E7E61846FBE675
:100D20004145ABD2B8EB020A69EB0E02013813461B
:100D3000A4E76046E9E7184695E76746D1E78146AC
:100D40007CE702382C4447E7ACF1020C2B442FE738
:100D5000384608E73746E9E6704700BF80B586B0F9
:100D600000AF78607B68002B01D1012392E37B68A0
:100D70001B6803F01003002B00F0D080A14B9B6890
:100D800003F00C03002B79D19E4B1B6803F0020388
:100D9000002B05D07B689B69002B01D1012379E3EF
:100DA0007B681A6A974B1B6803F00803002B04D07A
:100DB000944B1B6803F0F00305E0924BD3F894309A
:100DC0001B0903F0F003934223D27B681B6A184689
:100DD00000F024FD0346002B01D001235AE3894B88
:100DE0001B68884A43F008031360864B1B6823F096
:100DF000F0027B681B6A834913430B60814B5B687D
:100E000023F47F427B68DB691B027E4913434B60FE
:100E100022E07C4B1B687B4A43F008031360794B4C
:100E20001B6823F0F0027B681B6A764913430B6052
:100E3000744B5B6823F47F427B68DB691B0271495A
:100E400013434B607B681B6A184600F0E7FC0346BF
:100E5000002B01D001231DE300F0FCFB0146694B90
:100E60009B681B0903F00F03674AD35C21FA03F365
:100E7000664A1360002002F0A9F84FE07B689B6986
:100E8000002B32D05F4B1B685E4A43F001031360B6
:100E900007F0F6FF386108E007F0F2FF02463B6911
:100EA000D31A022B01D90323F4E2564B1B6803F03B
:100EB0000203002BF0D0534B1B68524A43F0080347
:100EC0001360504B1B6823F0F0027B681B6A4D498E
:100ED00013430B604B4B5B6823F47F427B68DB69F9
:100EE0001B02484913434B6018E0464B1B68454AB8
:100EF00023F00103136007F0C3FF386108E007F037
:100F0000BFFF02463B69D31A022B01D90323C1E27A
:100F10003C4B1B6803F00203002BF0D17B681B687D
:100F200003F00103002B7BD0364B9B6803F00C03CE
:100F3000082B0BD0334B9B6803F00C030C2B11D107
:100F4000304BDB6803F00303032B0BD12D4B1B68E5
:100F500003F40033002B62D07B685B68002B5ED10A
:100F6000012397E27B685B68B3F5803F06D1254B90
:100F70001B68244A43F4803313601DE07B685B6880
:100F8000B3F5A02F0CD11F4B1B681E4A43F48023DE
:100F900013601C4B1B681B4A43F4803313600BE047
:100FA000184B1B68174A23F480331360154B1B68DA
:100FB000144A23F4802313607B685B68002B13D0F2
:100FC00007F05EFF386108E007F05AFF02463B6910
:100FD000D31A642B01D903235CE20A4B1B6803F488
:100FE0000033002BF0D01BE007F04AFF38610FE020
:100FF00007F046FF02463B69D31A642B08D9032346
:1010000048E200BF001002403C3201080404002006
:10101000A94B1B6803F40033002BE9D100E000BFAB
:101020007B681B6803F00203002B69D0A24B9B680E
:1010300003F00C03042B0BD09F4B9B6803F00C03B5
:101040000C2B1CD19C4BDB6803F00303022B16D145
:10105000994B1B6803F48063002B05D07B68DB6829
:10106000002B01D1012315E2934B5B6823F0F8526A
:101070007B681B691B06904913434B6040E07B680B
:10108000DB68002B23D08C4B1B688B4A43F48073A6
:10109000136007F0F5FE386108E007F0F1FE024644
:1010A0003B69D31A022B01D90323F3E1824B1B685E
:1010B00003F48063002BF0D07F4B5B6823F0F85281
:1010C0007B681B691B067C4913434B6018E07A4B15
:1010D0001B68794A23F48073136007F0D1FE3861EE
:1010E00008E007F0CDFE02463B69D31A022B01D976
:1010F0000323CFE1704B1B6803F48063002BF0D116
:101100007B681B6803F00803002B3CD07B685B699D
:10111000002B1CD0684BD3F89430674A43F001038E
:10112000C2F8943007F0ACFE386108E007F0A8FE82
:1011300002463B69D31A022B01D90323AAE15E4B75
:10114000D3F8943003F00203002BEFD01BE05A4B8E
:10115000D3F89430584A23F00103C2F8943007F0D2
:101160008FFE386108E007F08BFE02463B69D31A18
:10117000022B01D903238DE14F4BD3F8943003F0B8
:101180000203002BEFD17B681B6803F00403002BE4
:1011900000F0A6800023FB75474B9B6D03F0805346
:1011A000002B0DD1444B9B6D434A43F08053936514
:1011B000414B9B6D03F08053FB60FB680123FB7583
:1011C0003E4B1B6803F48073002B18D13B4B1B680C
:1011D0003A4A43F48073136007F052FE386108E026
:1011E00007F04EFE02463B69D31A022B01D90323B6
:1011F00050E1324B1B6803F48073002BF0D07B6806
:101200009B68012B08D12C4BD3F890302A4A43F02D
:101210000103C2F8903024E07B689B68052B10D155
:10122000254BD3F89030244A43F00403C2F89030A1
:10123000214BD3F89030204A43F00103C2F890309C
:101240000FE01D4BD3F890301B4A23F00103C2F886
:101250009030194BD3F89030174A23F00403C2F8AA
:1012600090307B689B68002B16D007F009FE386130
:101270000AE007F005FE02463B69D31A41F28832C4
:10128000934201D9032305E10B4BD3F8903003F0CF
:101290000203002BEDD01AE007F0F2FD38610FE0F9
:1012A00007F0EEFD02463B69D31A41F288329342C1
:1012B00006D90323EEE000BF00100240007000409A
:1012C000764BD3F8903003F00203002BE8D1FB7D7E
:1012D000012B05D1714B9B6D704A23F080539365B0
:1012E0007B681B6803F02003002B3CD07B685B6AA3
:1012F000002B1CD0694BD3F89830684A43F00103A7
:10130000C2F8983007F0BCFD386108E007F0B8FD7E
:1013100002463B69D31A022B01D90323BAE05F4B83
:10132000D3F8983003F00203002BEFD01BE05B4BA7
:10133000D3F89830594A23F00103C2F8983007F0E7
:101340009FFD386108E007F09BFD02463B69D31A18
:10135000022B01D903239DE0504BD3F8983003F0C2
:101360000203002BEFD17B689B6A002B00F0918079
:101370004A4B9B6803F00C030C2B00F088807B68C1
:101380009B6A022B55D1454B1B68444A23F080735E
:10139000136007F075FD386108E007F071FD024643
:1013A0003B69D31A022B01D9032373E03B4B1B6823
:1013B00003F00073002BF0D17B681B6B013B1A011B
:1013C0007B685B6B1B021A437B68DB6A1A437B6892
:1013D000DB6B5B08013B5B051A437B681B6C5B089E
:1013E000013B5B061A437B689B6BDB062B4913436F
:1013F000CB602A4B1B68294A43F080731360274B4C
:10140000DB68264A43F08073D36007F039FD38610A
:1014100008E007F035FD02463B69D31A022B01D9DB
:10142000032337E01D4B1B6803F00073002BF0D043
:101430002FE01A4B1B68194A23F080731360174B77
:101440001B6803F00063002B05D1144BDB68134AC3
:1014500023F00303D360114BDB68104A23F0887339
:1014600023F48033D36007F00BFD386108E007F008
:1014700007FD02463B69D31A022B01D9032309E079
:10148000064B1B6803F00073002BF0D101E0012331
:1014900000E0002318461837BD4680BD001002400A
:1014A00080B584B000AF786039607B68002B01D1D3
:1014B0000123C2E0634B1B6803F007033A689A42BA
:1014C00010D9604B1B6823F007025E493B68134349
:1014D0000B605C4B1B6803F007033A689A4201D02B
:1014E0000123AAE07B681B6803F00103002B4CD0AA
:1014F0007B685B68032B07D1534B1B6803F00073B9
:10150000002B21D1012398E07B685B68022B07D177
:101510004D4B1B6803F40033002B15D101238CE0E5
:101520007B685B68002B07D1474B1B6803F0020305
:10153000002B09D1012380E0434B1B6803F4806337
:10154000002B01D1012378E03F4B9B6823F003027D
:101550007B685B683C4913438B6007F091FCF86043
:101560000AE007F08DFC0246FB68D31A41F288328C
:10157000934201D9032360E0334B9B6803F00C02D4
:101580007B685B689B009A42EBD17B681B6803F029
:101590000203002B08D02C4B9B6823F0F0027B68E1
:1015A0009B68294913438B60264B1B6803F0070394
:1015B0003A689A4210D2234B1B6823F00702214954
:1015C0003B6813430B601F4B1B6803F007033A682B
:1015D0009A4201D0012330E07B681B6803F00403CA
:1015E000002B08D0184B9B6823F4E0627B68DB6813
:1015F000154913438B607B681B6803F00803002BBD
:1016000009D0114B9B6823F460527B681B69DB0097
:101610000D4913438B6000F01DF801460A4B9B688F
:101620001B0903F00F03094AD35C21FA03F3084AAC
:101630001360002001F0CAFC002318461037BD4695
:1016400080BD00BF00200240001002403C32010873
:101650000404002080B487B000AF00237B61002326
:101660003B610023BB6002237B6002233B600023BD
:10167000FB604C4B9B6803F00C03002B0BD0494BD9
:101680009B6803F00C030C2B27D1464BDB6803F05F
:101690000303012B21D1434B1B6803F00803002BEC
:1016A00007D1404BD3F894301B0A03F00F037B6142
:1016B00005E03C4B1B681B0903F00F037B613A4AB2
:1016C0007B6952F823307B61364B9B6803F00C0337
:1016D000002B13D17B69FB6010E0324B9B6803F059
:1016E0000C03042B02D1314BFB6007E02D4B9B68B0
:1016F00003F00C03082B01D12D4BFB60294B9B6899
:1017000003F00C030C2B45D1264BDB6803F00303DD
:10171000BB60244BDB681B0903F0070301333B600C
:10172000BB68022B02D0032B0DD019E01F4A3B6887
:10173000B2FBF3F31B4AD268120A02F07F0202FBEB
:1017400003F33B6119E01A4A3B68B2FBF3F3154A15
:10175000D268120A02F07F0202FB03F33B610CE045
:101760007A693B68B2FBF3F30E4AD268120A02F0C0
:101770007F0202FB03F33B6100BF0A4BDB685B0E99
:1017800003F0030301335B007B603A697B68B2FBC3
:10179000F3F3FB60FB6818461C37BD465DF8047B1D
:1017A000704700BF00100240543201080024F400CA
:1017B00000127A0080B400AF034B1B681846BD4688
:1017C0005DF8047B704700BF0404002080B500AFC3
:1017D000FFF7F0FF0146054B9B681B0A03F0070368
:1017E000034AD35C21FA03F3184680BD001002407F
:1017F0004C32010880B500AFFFF7DCFF0146054B16
:101800009B68DB0A03F00703034AD35C21FA03F366
:10181000184680BD001002404C32010880B586B0E9
:1018200000AF786000237B6100233B612A4B9B6DF6
:1018300003F08053002B03D000F052F8786114E0DD
:10184000254B9B6D244A43F080539365224B9B6D3F
:1018500003F08053FB60FB6800F042F878611E4B98
:101860009B6D1D4A23F0805393657B69B3F5007F20
:101870000BD17B68802B19D97B68A02B02D902235E
:101880003B6113E001233B6110E07B68802B02D9B0
:1018900003233B610AE07B68802B02D102233B617A
:1018A00004E07B68702B01D101233B610B4B1B686B
:1018B00023F0070209493B6913430B60074B1B6880
:1018C00003F007033A699A4201D0012300E00023A4
:1018D00018461837BD4680BD001002400020024067
:1018E00080B400AF044B1B6803F4C0631846BD46C8
:1018F0005DF8047B704700BF0070004080B485B085
:1019000000AF78600023FB607B68B3F5007F2FD1C8
:10191000224B1B6803F4C063B3F5007F37D01F4B25
:101920001B6823F4C0631D4A43F4007313601C4B0F
:101930001B681C4AA2FB03239B0C322202FB03F30D
:10194000FB6002E0FB68013BFB60FB68002B06D0FC
:10195000124B5B6903F48063B3F5806FF2D00F4BD9
:101960005B6903F48063B3F5806F10D103230FE04C
:101970000A4B1B6803F4C063B3F5806F07D0074BB5
:101980001B6823F4C063054A43F48063136000239B
:1019900018461437BD465DF8047B70470070004060
:1019A0000404002083DE1B4380B400AF054B1B689A
:1019B000044A43F48073136000BFBD465DF8047BA6
:1019C000704700BF0070004080B487B000AF7860FF
:1019D000396000237B610023FB6000233B6154E1FD
:1019E0003B681A6801217B6901FA03F31340FB602D
:1019F000FB68002B00F046813B685B68022B03D03C
:101A00003B685B68122B23D17B69DA087B6808325C
:101A100053F822303B617B6903F007039B000F22E0
:101A200002FA03F3DB433A6913403B613B681A69EE
:101A30007B6903F007039B0002FA03F33A6913433F
:101A40003B617B69DA087B680832396943F8221008
:101A50007B681B683B617B695B00032202FA03F32E
:101A6000DB433A6913403B613B685B6803F0030268
:101A70007B695B0002FA03F33A6913433B617B68BD
:101A80003A691A603B685B68012B0BD03B685B6866
:101A9000022B07D03B685B68112B03D03B685B6867
:101AA000122B30D17B689B683B617B695B00032212
:101AB00002FA03F3DB433A6913403B613B68DA689F
:101AC0007B695B0002FA03F33A6913433B617B686D
:101AD0003A699A607B685B683B6101227B6902FA24
:101AE00003F3DB433A6913403B613B685B681B09C6
:101AF00003F001027B6902FA03F33A6913433B6185
:101B00007B683A695A607B68DB683B617B695B0094
:101B1000032202FA03F3DB433A6913403B613B685B
:101B20009A687B695B0002FA03F33A6913433B61ED
:101B30007B683A69DA603B685B6803F08053002B8E
:101B400000F0A080584B1B6E574A43F00103136608
:101B5000554B1B6E03F00103BB60BB68534A7B69A6
:101B60009B08023352F823303B617B6903F0030387
:101B70009B000F2202FA03F3DB433A6913403B61F7
:101B80007B68B3F1904F19D07B68494A934213D0D8
:101B90007B68484A93420DD07B68474A934207D0FE
:101BA0007B68464A934201D1042308E0072306E0FC
:101BB000032304E0022302E0012300E000237A690A
:101BC00002F00302920093403A6913433B613749A4
:101BD0007B699B0802333A6941F82320384B1B6824
:101BE0003B61FB68DB433A6913403B613B685B68E0
:101BF00003F48033002B03D03A69FB6813433B6145
:101C00002F4A3B6913602E4B5B683B61FB68DB43EB
:101C10003A6913403B613B685B6803F40033002B77
:101C200003D03A69FB6813433B61254A3B69536023
:101C3000234B9B683B61FB68DB433A6913403B6184
:101C40003B685B6803F48013002B03D03A69FB68A0
:101C500013433B611A4A3B699360194BDB683B6154
:101C6000FB68DB433A6913403B613B685B6803F404
:101C70000013002B03D03A69FB6813433B61104A01
:101C80003B69D3607B6901337B613B681A687B6980
:101C900022FA03F3002B7FF4A3AE00BF1C37BD462E
:101CA0005DF8047B704700BF001002400000014057
:101CB0000004004800080048000C004800100048DC
:101CC0000004014080B483B000AF78600B467B8095
:101CD00013467B707B78002B03D07A887B689A61EF
:101CE00002E07A887B689A6200BF0C37BD465DF8D7
:101CF000047B704780B483B000AF78600B467B8074
:101D00007B685A697B885A407B685A6100BF0C37F0
:101D1000BD465DF8047B704780B582B000AF0346D6
:101D2000FB80084B5A69FB881340002B06D0054AFC
:101D3000FB885361FB88184609F03AF900BF083761
:101D4000BD4680BD0004014080B586B000AF78601C
:101D500000237B610023FB600023FB740023BB7422
:101D60007B681B6803F40063002B2FD07B685B6CDF
:101D7000B3F5000F05D0B3F5400F15D0002B07D0F9
:101D80000FE05A4BDB68594A43F48033D3600CE0D0
:101D90007B6804330021184600F0EAF90346FB741F
:101DA00003E00123FB7400E000BFFB7C002B0BD1A0
:101DB0004E4BD3F8883023F440027B685B6C4B4970
:101DC0001343C1F8883001E0FB7CBB747B681B685F
:101DD00003F40033002B00F0988000237B74434B06
:101DE0009B6D03F08053002B0DD1404B9B6D3F4A00
:101DF00043F0805393653D4B9B6D03F08053BB6074
:101E0000BB6801237B743A4B1B68394A43F48073E7
:101E1000136007F035F8F86009E007F031F8024682
:101E2000FB68D31A022B02D90323FB7405E0304B65
:101E30001B6803F48073002BEFD0FB7C002B59D17F
:101E40002A4BD3F8903003F440737B617B69002BFD
:101E50001ED07B689B6D7A699A4219D0234BD3F8C8
:101E6000903023F440737B61204BD3F890301F4AAD
:101E700043F48033C2F890301C4BD3F890301B4AA7
:101E800023F48033C2F89030184A7B69C2F890304E
:101E90007B6903F00103002B16D006F0F1FFF86018
:101EA0000BE006F0EDFF0246FB68D31A41F28832E0
:101EB000934202D90323FB7406E00C4BD3F8903015
:101EC00003F00203002BECD0FB7C002B0BD1074B63
:101ED000D3F8903023F440727B689B6D0349134321
:101EE000C1F8903008E0FB7CBB7405E000100240B4
:101EF00000700040FB7CBB747B7C012B05D19B4BAD
:101F00009B6D9A4A23F0805393657B681B6803F0AE
:101F10000103002B0AD0954BD3F8883023F003023D
:101F20007B681B6A91491343C1F888307B681B6842
:101F300003F00203002B0AD08C4BD3F8883023F037
:101F40000C027B685B6A89491343C1F888307B685F
:101F50001B6803F00403002B0AD0844BD3F88830AD
:101F600023F030027B689B6A80491343C1F88830B4
:101F70007B681B6803F02003002B0AD07B4BD3F84F
:101F8000883023F440627B68DB6A78491343C1F8E8
:101F900088307B681B6803F40073002B0AD0734BF6
:101FA000D3F8883023F440227B68DB6B6F491343FE
:101FB000C1F888307B681B6803F48063002B0AD06B
:101FC0006A4BD3F8883023F440127B681B6C674956
:101FD0001343C1F888307B681B6803F04003002B73
:101FE0000AD0624BD3F8883023F440527B681B6BD5
:101FF0005E491343C1F888307B681B6803F0800397
:10200000002B0AD0594BD3F8883023F440427B6828
:102010005B6B56491343C1F888307B681B6803F437
:102020008073002B0AD0514BD3F8883023F4403210
:102030007B689B6B4D491343C1F888307B681B68F4
:1020400003F40023002B28D0484BD3F8883023F02A
:1020500040627B689B6C45491343C1F888307B68BC
:102060009B6CB3F1006F06D1404BDB683F4A43F4F1
:102070008013D36011E07B689B6CB3F1806F0CD14F
:102080007B6804330121184600F072F80346FB74A4
:10209000FB7C002B01D0FB7CBB747B681B6803F4CA
:1020A0008023002B28D0314BD3F8883023F04062B6
:1020B0007B68DB6C2D491343C1F888307B68DB6C8F
:1020C000B3F1006F06D1294BDB68284A43F4801333
:1020D000D36011E07B68DB6CB3F1806F0CD17B685F
:1020E00004330121184600F043F80346FB74FB7CDF
:1020F000002B01D0FB7CBB747B681B6803F480431E
:10210000002B1CD0194BD3F8883023F040527B6849
:102110001B6D16491343C1F888307B681B6DB3F102
:10212000805F0CD17B6804330221184600F020F850
:102130000346FB74FB7C002B01D0FB7CBB747B68EB
:102140001B6803F40043002B0AD0084BD3F88830F7
:1021500023F080427B685B6D04491343C1F88830EB
:10216000BB7C18461837BD4680BD00BF001002403A
:1021700080B584B000AF786039600023BB60002375
:10218000FB73734BDB6803F00303002B18D0704B19
:10219000DB6803F003027B681B689A420DD17B6801
:1021A0001B68002B09D06A4BDB681B0903F007038F
:1021B0005A1C7B685B689A4244D00123FB7341E060
:1021C0007B681B68022B0CD0032B13D0012B20D172
:1021D0005F4B1B6803F00203002B1DD10123FB732F
:1021E0001AE05B4B1B6803F48063002B16D10123BC
:1021F000FB7313E0564B1B6803F40033002B0FD125
:10220000534B1B6803F48023002B09D10123FB737C
:1022100006E00123FB7304E000BF02E000BF00E022
:1022200000BFFB7B002B0DD1494BDB6823F0730211
:102230007B6819687B685B68013B1B010B43444961
:102240001343CB60FB7B002B7CD1414B1B68404A86
:1022500023F08063136006F013FEB86009E006F017
:102260000FFE0246BB68D31A022B02D90323FB736D
:1022700005E0374B1B6803F00063002BEFD1FB7BBD
:10228000002B5FD13B68002B10D1314B1B6923F031
:10229000784323F4FE437A68926811027A68D26820
:1022A000D2060A432A4913430B6127E03B68012BFE
:1022B00012D1274B1B6923F4C00323F4FE437A6831
:1022C000926811027A6812695208013A52050A436B
:1022D0001F4913430B6111E01D4B1B6923F0C063C1
:1022E00023F4FE437A68926811027A6852695208B0
:1022F000013A52060A43164913430B61144B1B68FB
:10230000134A43F08063136006F0BAFDB86009E039
:1023100006F0B6FD0246BB68D31A022B02D903238E
:10232000FB7305E00A4B1B6803F00063002BEFD042
:10233000FB7B002B06D1064B1A697B689B6904491D
:1023400013430B61FB7B18461037BD4680BD00BFB1
:102350000010024080B485B000AF78607B6803F065
:102360000703FB600C4BDB68BB60BA684FF6FF03EA
:102370001340BB60FB681A02BB68134343F0BF63A2
:1023800043F40033BB60044ABB68D36000BF14371A
:10239000BD465DF8047B704700ED00E080B400AFFF
:1023A000044BDB681B0A03F007031846BD465DF8C3
:1023B000047B704700ED00E080B483B000AF0346BB
:1023C000FB7197F90730002B0BDBFB7903F01F0241
:1023D000074997F907305B09012000FA02F241F83A
:1023E000232000BF0C37BD465DF8047B704700BF5B
:1023F00000E100E080B483B000AF03463960FB71B8
:1024000097F90730002B0ADB3B68DAB20C4997F9E1
:1024100007301201D2B20B4483F800230AE03B6874
:10242000DAB20849FB7903F00F03043B1201D2B280
:102430000B441A7600BF0C37BD465DF8047B70472D
:1024400000E100E000ED00E080B489B000AFF8608A
:10245000B9607A60FB6803F00703FB61FB69C3F1B5
:102460000703042B28BF0423BB61FB690433062B3D
:1024700002D9FB69033B00E000237B614FF0FF3290
:10248000BB6902FA03F3DA43BB681A407B699A40DE
:102490004FF0FF317B6901FA03F3D9437B680B40AE
:1024A000134318462437BD465DF8047B704700008F
:1024B00080B582B000AF78607B68013BB3F1807F6C
:1024C00001D301230FE00A4A7B68013B53600F21CF
:1024D0004FF0FF30FFF78EFF054B00229A60044B50
:1024E00007221A60002318460837BD4680BD00BF8A
:1024F00010E000E080B582B000AF78607868FFF748
:1025000029FF00BF0837BD4680BD80B586B000AF4B
:102510000346B9607A60FB7300237B61FFF73EFFDF
:1025200078617A68B9687869FFF78EFF024697F993
:102530000F3011461846FFF75DFF00BF1837BD4644
:1025400080BD80B582B000AF0346FB7197F90730BC
:102550001846FFF731FF00BF0837BD4680BD80B584
:1025600082B000AF78607868FFF7A2FF0346184694
:102570000837BD4680BD80B500AF00F002F800BF4F
:1025800080BD80B400AF00BFBD465DF8047B7047DE
:1025900080B582B000AF78607B68002B01D1012349
:1025A00043E07B6893F87130DBB2002B06D17B6887
:1025B000002283F87020786806F022FB7B682422D2
:1025C00083F871207B681B681A687B681B6822F09F
:1025D00001021A60786800F0B9F80346012B01D1B6
:1025E000012322E07B685B6A002B02D0786800F050
:1025F000A3FB7B681B685A687B681B6822F49042C7
:102600005A607B681B689A687B681B6822F02A0204
:102610009A607B681B681A687B681B6842F001023D
:102620001A60786800F02AFC034618460837BD4651
:1026300080BD80B588B002AFF860B9603B601346DA
:10264000FB8000237B61FB6893F87130DBB2202BA9
:1026500077D1BB68002B02D0FB88002B01D101236E
:1026600070E0FB6893F87030012B01D1022369E020
:10267000FB68012283F87020FB6800225A67FB6820
:10268000212283F8712006F0FBFB7861FB68FA8851
:10269000A3F85020FB68FA88A3F8522034E03B6886
:1026A00000937B6900228021F86800F030FC03462B
:1026B000002B01D0032345E0FB689B68B3F5805FE6
:1026C00011D1FB681B69002B0DD1BB683B613B69D5
:1026D0001A88FB681B68C2F3080292B21A85BB68AD
:1026E0000233BB6007E0BB685A1CBA601A78FB680B
:1026F0001B6892B21A85FB68B3F852309BB2013B5B
:102700009AB2FB68A3F85220FB68B3F852309BB230
:10271000002BC4D13B6800937B6900224021F868FC
:1027200000F0F5FB0346002B01D003230AE0FB6811
:10273000202283F87120FB68002283F87020002398
:1027400000E0022318461837BD4680BD2DE99048A9
:1027500088B000AF78600023FB611023FB76002374
:102760007B8100237B610023FB740023FB607B687B
:102770009A687B681B691A437B685B691A437B68AC
:10278000DB691343FB617B681B681A68AE4B13401F
:102790007A681268F9690B4313607B681B685B6891
:1027A00023F440517B68DA687B681B680A435A60EF
:1027B0007B689B69FB617B681B68A44A934204D0D9
:1027C0007B681B6AFA691343FB617B681B689B6823
:1027D00023F430617B681B68FA690A439A607B685E
:1027E0001B689B4A934221D19A4BD3F8883003F05F
:1027F0000303032B16D801A252F823F00D2800087A
:1028000019280008132800081F2800080123FB7658
:1028100096E00223FB7693E00423FB7690E0082306
:10282000FB768DE01023FB7600BF89E07B681B6898
:10283000894A934234D1874BD3F8883003F00C0394
:102840000C2B29D801A252F823F000BF81280008E0
:102850009928000899280008992800088D28000860
:102860009928000899280008992800088728000856
:10287000992800089928000899280008932800083A
:102880000023FB765CE00223FB7659E00423FB7611
:1028900056E00823FB7653E01023FB7600BF4FE0A1
:1028A0007B681B686D4A934220D16A4BD3F888300D
:1028B00003F03003102B0FD0102B02D8002B05D0C3
:1028C00010E0202B05D0302B09D00BE00023FB7645
:1028D00036E00223FB7633E00423FB7630E0082366
:1028E000FB762DE01023FB7600BF29E07B681B6898
:1028F000564A934223D1574BD3F8883003F44063B0
:10290000B3F5806F12D0B3F5806F02D8002B07D0DB
:1029100012E0B3F5006F06D0B3F5406F09D00BE0BD
:102920000023FB760CE00223FB7609E00423FB7610
:1029300006E00823FB7603E01023FB7600E000BFEF
:102940007B681B68414A934240F0F480FB7E082B71
:1029500023D801A252F823F07D2900089B29000802
:10296000852900089B2900088B2900089B2900085D
:102970009B2900089B29000893290008FEF726FFE1
:10298000F8600DE0364BFB600AE0FEF763FEF8608E
:1029900006E04FF40043FB6002E00123FB7400BF3C
:1029A000FB68002B00F0B9817B685A6813465B0016
:1029B0001344FA689A4205D37B685B681B03FA6884
:1029C0009A4202D90123FB74A7E1FB7E082B00F297
:1029D0009E8001A252F823F0FD2900080F2B000869
:1029E000652A00080F2B0008992A00080F2B000801
:1029F0000F2B00080F2B0008E52A0008FEF7E6FE63
:102A0000034619464FF000024FF000034FF0000458
:102A1000140244EA11640B027A68526852081146A3
:102A20004FF0000213EB010B44EB020C58466146D9
:102A30007B685B684FF000041A462346FEF70EF8E9
:102A400003460C467B6165E0F369FFEF00800040C0
:102A5000003801400010024000440040004800409F
:102A60000024F4007B685B685B084FF00004B14908
:102A70004FF0000213EB010B44EB020C5846614689
:102A80007B685B684FF000041A462346FDF7E6FFBB
:102A900003460C467B613DE0FEF7DCFD034619462C
:102AA0004FF000024FF000034FF00004140244EA1C
:102AB00011640B027A685268520811464FF0000206
:102AC00013EB010B44EB020C584661467B685B68D4
:102AD0004FF000041A462346FDF7C0FF03460C469C
:102AE0007B6117E07B685B685B084FF0000413F5BF
:102AF000000044F100017B685B684FF000041A4657
:102B00002346FDF7ABFF03460C467B6102E0012341
:102B1000FB7400BF7B69B3F5407F08D37B69B3F5D5
:102B2000801F04D27B681B687A69DA60F5E00123B4
:102B3000FB74F2E07B68DB69B3F5004F7FD1FB7E6D
:102B4000082B5CD801A252F823F000BF712B0008BB
:102B50008F2B0008AD2B0008FF2B0008C92B0008A5
:102B6000FF2B0008FF2B0008FF2B0008E72B0008B5
:102B7000FEF72CFE03465A007B685B685B081A442C
:102B80007B685B68B2FBF3F39BB27B613AE0FEF7D4
:102B900031FE03465A007B685B685B081A447B6819
:102BA0005B68B2FBF3F39BB27B612BE07B685B68F5
:102BB0005B0803F1F47303F590437A685268B3FB42
:102BC000F2F39BB27B611DE0FEF744FD03465A0021
:102BD0007B685B685B081A447B685B68B2FBF3F355
:102BE0009BB27B610EE07B685B685B0803F580321B
:102BF0007B685B68B2FBF3F39BB27B6102E001236D
:102C0000FB7400BF7B690F2B16D97B69B3F5803F3E
:102C100012D27B699BB223F00F037B817B695B0837
:102C20009BB203F007039AB27B8913437B817B68D5
:102C30001B687A89DA6070E00123FB746DE0FB7E2B
:102C4000082B59D801A252F823F000BF712C0008BC
:102C50008D2C0008A92C0008F92C0008C52C0008B0
:102C6000F92C0008F92C0008F92C0008E12C0008C8
:102C7000FEF7ACFD02467B685B685B081A447B6824
:102C80005B68B2FBF3F39BB27B6138E0FEF7B2FD09
:102C900002467B685B685B081A447B685B68B2FB32
:102CA000F3F39BB27B612AE07B685B685B0803F50A
:102CB000740303F510537A685268B3FBF2F39BB2C6
:102CC0007B611CE0FEF7C6FC02467B685B685B0824
:102CD0001A447B685B68B2FBF3F39BB27B610EE046
:102CE0007B685B685B0803F500427B685B68B2FB4E
:102CF000F3F39BB27B6102E00123FB7400BF7B69AD
:102D00000F2B08D97B69B3F5803F04D27B681B6821
:102D10007A69DA6001E00123FB747B6800221A669D
:102D20007B6800225A66FB7C18462037BD46BDE80A
:102D3000908800BF000024F480B483B000AF7860B6
:102D40007B685B6A03F00103002B0AD07B681B6879
:102D50005B6823F400317B689A6A7B681B680A43CE
:102D60005A607B685B6A03F00203002B0AD07B6821
:102D70001B685B6823F480317B68DA6A7B681B68B8
:102D80000A435A607B685B6A03F00403002B0AD095
:102D90007B681B685B6823F480217B681A6B7B6807
:102DA0001B680A435A607B685B6A03F00803002BC8
:102DB0000AD07B681B685B6823F400417B685A6B10
:102DC0007B681B680A435A607B685B6A03F01003E8
:102DD000002B0AD07B681B689B6823F480517B68BA
:102DE0009A6B7B681B680A439A607B685B6A03F096
:102DF0002003002B0AD07B681B689B6823F40051DA
:102E00007B68DA6B7B681B680A439A607B685B6A45
:102E100003F04003002B1AD07B681B685B6823F427
:102E200080117B681A6C7B681B680A435A607B6858
:102E30001B6CB3F5801F0AD17B681B685B6823F4A9
:102E4000C0017B685A6C7B681B680A435A607B68C8
:102E50005B6A03F08003002B0AD07B681B685B6809
:102E600023F400217B689A6C7B681B680A435A60D4
:102E700000BF0C37BD465DF8047B704780B586B057
:102E800002AF78600023FB607B6800225A6705F080
:102E9000F7FFF8607B681B681B6803F00803082BCA
:102EA0000ED16FF07E430093FB6800224FF40011B7
:102EB000786800F02CF80346002B01D0032322E0B1
:102EC0007B681B681B6803F00403042B0ED16FF0B2
:102ED0007E430093FB6800224FF48001786800F085
:102EE00016F80346002B01D003230CE07B68202258
:102EF00083F871207B68202283F872207B6800228F
:102F000083F87020002318461037BD4680BD80B579
:102F100084B000AFF860B9603B601346FB712CE0F1
:102F2000BB69B3F1FF3F28D0BB69002B07D005F088
:102F3000A7FF02463B68D31ABA699A421DD2FB68C2
:102F40001B681A68FB681B6822F4D0721A60FB6861
:102F50001B689A68FB681B6822F001029A60FB6894
:102F6000202283F87120FB68202283F87220FB68FE
:102F7000002283F8702003230FE0FB681B68DA69E6
:102F8000BB681340BA689A420CBF01230023DBB22E
:102F90001A46FB799A42C3D0002318461037BD4623
:102FA00080BD80B500AF0320FFF7A4FA002000F039
:102FB0000DF800F003F80023184680BD80B400AF80
:102FC00000BFBD465DF8047B7047000080B582B04D
:102FD00000AF7860094B1B68094AA2FB03239B09D9
:102FE0001846FFF7BCFA002279684FF0FF30FFF770
:102FF0008CFA002318460837BD4680BD0404002023
:10300000D34D621080B400AF044B1B680133034AF8
:10301000136000BFBD465DF8047B7047B018002008
:1030200080B584B000AF786005F02AFFB8607B6897
:10303000FB60FB68B3F1FF3F02D0FB680133FB602C
:1030400000BF05F01DFF0246BB68D31AFA689A421A
:10305000F7D800BF1037BD4680BD80B584B000AF43
:1030600078607B68002B01D101237CE07B68002223
:103070009A627B6893F85D30DBB2002B06D17B68E7
:10308000002283F85C20786806F0BCF87B68022296
:1030900083F85D207B681B681A687B681B6822F0D8
:1030A00040021A607B68DB68B3F5E06F02D9002349
:1030B000FB6002E04FF48053FB607B68DB68B3F594
:1030C000706F07D07B68DB68B3F5E06F02D07B6878
:1030D00000229A627B681B6B002B0BD17B68DB683C
:1030E000B3F5E06F03D97B6802221A6302E07B68C4
:1030F00001221A637B685A687B689B681A437B6865
:103100001B691A437B685B691A437B689B6903F4FC
:1031100000731A437B68DB691A437B681B6A42EAC7
:1031200003017B689A6A7B681B680A431A607B68A4
:103130009B691B0C03F004027B685B6A1A437B6883
:103140005B6B1A437B68DB6842EA03017B681B68A0
:10315000FA680A435A607B6800221A667B6801227B
:1031600083F85D20002318461037BD4680BD80B52A
:1031700088B000AFF860B9603B601346FB80002365
:10318000BB610023FB77FB6893F85C30012B01D116
:1031900002233EE1FB68012283F85C2005F070FE0B
:1031A000B861FB6893F85D30DBB2012B02D00223DB
:1031B000FB7725E1BB68002B02D0FB88002B02D1F6
:1031C0000123FB771CE1FB68032283F85D20FB6889
:1031D00000221A66FB68BA689A63FB68FA889A87C5
:1031E000FB68FA88DA87FB6800221A64FB68002211
:1031F000A3F84420FB680022A3F84620FB680022C5
:103200001A65FB680022DA64FB689B68B3F5004F1F
:1032100007D1FB681B681A68FB681B6842F4804290
:103220001A60FB681B681B6803F04003402B07D043
:10323000FB681B681A68FB681B6842F040021A6052
:10324000FB68DB68B3F5E06F47D9FB685B68002B70
:1032500004D0FB68DB8F9BB2012B38D1BB681A8886
:10326000FB681B68DA60BB680233BB60FB68DB8FFE
:103270009BB2013B9AB2FB68DA8728E0FB681B68C7
:103280009B6803F00203022B0FD1BB681A88FB680E
:103290001B68DA60BB680233BB60FB68DB8F9BB2E4
:1032A000013B9AB2FB68DA8711E03B68002B0BD038
:1032B0003B68B3F1FF3F0AD005F0E2FD0246BB696F
:1032C000D31A3A689A4202D80323FB7798E0FB6846
:1032D000DB8F9BB2002BD1D170E0FB685B68002BC9
:1032E00004D0FB68DB8F9BB2012B62D1FB68DB8FC4
:1032F0009BB2012B0FD9BB681A88FB681B68DA6088
:10330000BB680233BB60FB68DB8F9BB2023B9AB2A7
:10331000FB68DA874DE0BB685A1CBA60FA6812682D
:103320000C321B781370FB68DB8F9BB2013B9AB2A7
:10333000FB68DA873DE0FB681B689B6803F00203CB
:10334000022B24D1FB68DB8F9BB2012B0FD9BB680A
:103350001A88FB681B68DA60BB680233BB60FB68D5
:10336000DB8F9BB2023B9AB2FB68DA8721E0BB6835
:103370005A1CBA60FA6812680C321B781370FB682A
:10338000DB8F9BB2013B9AB2FB68DA8711E03B68A6
:10339000002B0BD03B68B3F1FF3F0AD005F070FD66
:1033A0000246BB69D31A3A689A4202D80323FB77D4
:1033B00026E0FB68DB8F9BB2002BBCD1BA69396871
:1033C000F86800F002F90346002B02D0FB682022C7
:1033D0001A66FB689B68002B0AD100237B61FB689F
:1033E0001B68DB687B61FB681B689B687B617B6992
:1033F000FB681B6E002B02D00123FB7700E000BFAF
:10340000FB68012283F85D20FB68002283F85C20C2
:10341000FB7F18462037BD4680BD80B584B000AF25
:10342000F860B9607A603B604CE03B68B3F1FF3F05
:1034300048D03B68002B07D005F022FD0246BB694F
:10344000D31A3A689A423DD8FB681B685A68FB68F1
:103450001B6822F0E0025A60FB685B68B3F5827F6C
:1034600011D1FB689B68B3F5004F04D0FB689B68E3
:10347000B3F5806F07D1FB681B681A68FB681B688F
:1034800022F040021A60FB689B6AB3F5005F0FD11F
:10349000FB681B681A68FB681B6822F400521A60FC
:1034A000FB681B681A68FB681B6842F400521A60CC
:1034B000FB68012283F85D20FB68002283F85C2012
:1034C00003230EE0FB681B689A68BB681340BA6868
:1034D0009A4201D1012200E000227B689A42A4D1E5
:1034E000002318461037BD4680BD80B586B000AFBA
:1034F000F860B9607A603B605AE0BB68B3F5C06FB2
:1035000009D17B68002B06D1FB681B680C331B7844
:10351000DBB2FB75FB7D3B68B3F1FF3F48D03B68F6
:10352000002B07D005F0ACFC02463B6AD31A3A6880
:103530009A423DD8FB681B685A68FB681B6822F0FA
:10354000E0025A60FB685B68B3F5827F11D1FB68CB
:103550009B68B3F5004F04D0FB689B68B3F5806FA0
:1035600007D1FB681B681A68FB681B6822F04002E1
:103570001A60FB689B6AB3F5005F0FD1FB681B689C
:103580001A68FB681B6822F400521A60FB681B680B
:103590001A68FB681B6842F400521A60FB6801223B
:1035A00083F85D20FB68002283F85C20032308E099
:1035B000FB681B689A68BB6813407A689A429CD182
:1035C000002318461837BD4680BD80B586B002AFCF
:1035D000F860B9607A607B680093BB6800224FF4A2
:1035E000C051F868FFF781FF0346002B07D0FB6846
:1035F0001B6E43F02002FB681A66032327E07B68FA
:103600000093BB6800228021F868FFF706FF03469D
:10361000002B07D0FB681B6E43F02002FB681A6684
:10362000032314E07B680093BB6800224FF4C06161
:10363000F868FFF75AFF0346002B07D0FB681B6EA4
:1036400043F02002FB681A66032300E000231846BB
:103650001037BD4680BD80B582B000AF78607B6812
:10366000002B05D17B684FF400725A64012381E07E
:103670007B6893F84130DBB2002B06D17B680022D7
:1036800083F84020786805F0F1FC7B68242283F8F9
:1036900041207B681B681A687B681B6822F0010266
:1036A0001A607B685A687B681B6822F070621A6136
:1036B0007B681B689A687B681B6822F400429A60EA
:1036C0007B68DB68012B07D17B689A687B681B6885
:1036D00042F400429A6006E07B689A687B681B6847
:1036E00042F404429A607B68DB68022B04D17B6859
:1036F0001B684FF400625A607B681B685B687A68DD
:10370000126843F0007343F4004353607B681B6806
:10371000DA687B681B6822F40042DA607B681A6909
:103720007B685B6942EA03017B689B691A027B68DC
:103730001B680A43DA607B68D9697B681A6A7B6810
:103740001B680A431A607B681B681A687B681B68E1
:1037500042F001021A607B6800225A647B682022D2
:1037600083F841207B6800221A637B68002283F87B
:103770004220002318460837BD4680BD80B588B07A
:1037800002AFF8607A601A460B467B8113463B8194
:10379000FB6893F84130DBB2202B40F0D880FB6807
:1037A00093F84030012B01D10223D1E0FB680122C4
:1037B00083F8402005F064FB78617B69009319234E
:1037C00001224FF40041F86800F0E2F90346002BB3
:1037D00001D00123BCE0FB68212283F84120FB6873
:1037E000102283F84220FB6800225A64FB687A6842
:1037F0005A62FB683A895A85FB6800225A63FB6863
:103800005B8D9BB2FF2B0ED9FB68FF221A85FB68EC
:103810001B8DDAB27989504B00934FF08073F868B2
:1038200000F044FB6AE0FB685B8D9AB2FB681A8586
:10383000FB681B8DDAB27989474B00934FF0007318
:10384000F86800F033FB59E07A69396AF86800F0EB
:10385000DFF90346002B01D0012379E0FB685B6AA6
:10386000591CFA6851621A78FB681B689A62FB68F7
:103870005B8D9BB2013B9AB2FB685A85FB681B8D3E
:10388000013B9AB2FB681A85FB685B8D9BB2002BEB
:1038900034D0FB681B8D002B30D17B6900933B6AD1
:1038A00000228021F86800F073F90346002B01D054
:1038B00001234DE0FB685B8D9BB2FF2B0ED9FB68AB
:1038C000FF221A85FB681B8DDAB2798900230093E9
:1038D0004FF08073F86800F0E9FA0FE0FB685B8D49
:1038E0009AB2FB681A85FB681B8DDAB279890023CE
:1038F00000934FF00073F86800F0D8FAFB685B8D16
:103900009BB2002BA0D17A69396AF86800F0C0F93F
:103910000346002B01D001231AE0FB681B6820221C
:10392000DA61FB681B685968FB681A680B4B0B402F
:103930005360FB68202283F84120FB68002283F853
:103940004220FB68002283F84020002300E002238D
:1039500018461837BD4680BD0020008000E800FEF4
:1039600080B588B002AFF8607A601A460B467B815A
:1039700013463B81FB6893F84130DBB2202B40F0CB
:10398000D980FB6893F84030012B01D10223D2E0AB
:10399000FB68012283F8402005F072FA78617B69A8
:1039A0000093192301224FF40041F86800F0F0F869
:1039B0000346002B01D00123BDE0FB68222283F8DF
:1039C0004120FB68102283F84220FB6800225A64E1
:1039D000FB687A685A62FB683A895A85FB6800225C
:1039E0005A63FB685B8D9BB2FF2B0ED9FB68FF22ED
:1039F0001A85FB681B8DDAB27989514B00934FF021
:103A00008073F86800F052FA6BE0FB685B8D9AB245
:103A1000FB681A85FB681B8DDAB27989484B0093E5
:103A20004FF00073F86800F041FA5AE07A69396A99
:103A3000F86800F069F90346002B01D001237AE011
:103A4000FB681B68586AFB685B6A591CFA6851621C
:103A5000C2B21A70FB681B8D013B9AB2FB681A85D3
:103A6000FB685B8D9BB2013B9AB2FB685A85FB6891
:103A70005B8D9BB2002B34D0FB681B8D002B30D1AB
:103A80007B6900933B6A00228021F86800F080F88F
:103A90000346002B01D001234DE0FB685B8D9BB2F8
:103AA000FF2B0ED9FB68FF221A85FB681B8DDAB24B
:103AB0007989002300934FF08073F86800F0F6F9DD
:103AC0000FE0FB685B8D9AB2FB681A85FB681B8D63
:103AD000DAB27989002300934FF00073F86800F0A0
:103AE000E5F9FB685B8D9BB2002B9FD17A69396A3F
:103AF000F86800F0CDF80346002B01D001231AE04E
:103B0000FB681B682022DA61FB681B685968FB6848
:103B10001A680C4B0B405360FB68202283F841204D
:103B2000FB68002283F84220FB68002283F84020D3
:103B3000002300E0022318461837BD4680BD00BFB1
:103B40000024008000E800FE80B483B000AF7860FD
:103B50007B681B689B6903F00203022B03D17B681F
:103B60001B6800229A627B681B689B6903F0010353
:103B7000012B07D07B681B689A697B681B6842F041
:103B800001029A6100BF0C37BD465DF8047B7047A7
:103B900080B584B000AFF860B9603B601346FB713C
:103BA00022E03B68B3F1FF3F1ED005F069F9024601
:103BB000BB69D31A3A689A4202D33B68002B13D1EF
:103BC000FB685B6C43F02002FB685A64FB682022B0
:103BD00083F84120FB68002283F84220FB68002222
:103BE00083F8402001230FE0FB681B689A69BB68DB
:103BF0001340BA689A420CBF01230023DBB21A4675
:103C0000FB799A42CDD0002318461037BD4680BDBF
:103C100080B584B000AFF860B9607A602CE07A6853
:103C2000B968F86800F0DCF80346002B01D00123E6
:103C30002AE0BB68B3F1FF3F1ED005F021F9024630
:103C40007B68D31ABA689A4202D3BB68002B13D19F
:103C5000FB685B6C43F02002FB685A64FB6820221F
:103C600083F84120FB68002283F84220FB68002291
:103C700083F84020012307E0FB681B689B6903F081
:103C80000203022BCBD1002318461037BD4680BD5E
:103C900080B584B000AFF860B9607A6028E07A68D7
:103CA000B968F86800F09CF80346002B01D00123A6
:103CB00026E005F0E5F802467B68D31ABA689A4216
:103CC00002D3BB68002B13D1FB685B6C43F020026E
:103CD000FB685A64FB68202283F84120FB680022BD
:103CE00083F84220FB68002283F84020012307E08C
:103CF000FB681B689B6903F02003202BCFD10023B6
:103D000018461037BD4680BD80B584B000AFF8605E
:103D1000B9607A6055E07A68B968F86800F060F8D0
:103D20000346002B01D0012353E0FB681B689B690D
:103D300003F02003202B29D1FB681B689B6903F04B
:103D40000403042B05D1FB681B8D002B01D000233D
:103D50003FE0FB681B682022DA61FB681B6859683A
:103D6000FB681A681D4B0B405360FB6800225A64C5
:103D7000FB68202283F84120FB68002283F8422060
:103D8000FB68002283F84020012322E005F078F848
:103D900002467B68D31ABA689A4202D3BB68002BEA
:103DA0000FD1FB685B6C43F02002FB685A64FB6830
:103DB000202283F84120FB68002283F84020012361
:103DC00007E0FB681B689B6903F00403042BA2D186
:103DD000002318461037BD4680BD00BF00E800FE36
:103DE00080B584B000AFF860B9607A60FB681B688A
:103DF0009B6903F01003102B51D122E0BB68B3F193
:103E0000FF3F1ED005F03CF802467B68D31ABA6823
:103E10009A4202D3BB68002B13D1FB685B6C43F062
:103E20002002FB685A64FB68202283F84120FB686B
:103E3000002283F84220FB68002283F840200123FF
:103E40002EE0FB681B689B6903F02003202BD5D173
:103E5000FB681B681022DA61FB681B682022DA61AC
:103E6000F868FFF771FEFB681B685968FB681A6801
:103E70000D4B0B405360FB685B6C43F00402FB6826
:103E80005A64FB68202283F84120FB68002283F8F3
:103E90004220FB68002283F84020012300E0002339
:103EA00018461037BD4680BD00E800FE80B485B0DE
:103EB00000AFF8607B600B467B8113467B72FB682A
:103EC0001B685A68BB695B0D03F480610D4B0B43A3
:103ED000DB4302EA03017B89C3F309027B7A1B04FB
:103EE00003F47F031A437B681A43BB691A43FB68D8
:103EF0001B680A435A6000BF1437BD465DF8047B57
:103F0000704700BFFF63FF0380B483B000AF7860E9
:103F100039607B6893F84130DBB2202B38D17B6865
:103F200093F84030012B01D1022332E07B6801225B
:103F300083F840207B68242283F841207B681B683B
:103F40001A687B681B6822F001021A607B681B6894
:103F50001A687B681B6822F480521A607B681B68B1
:103F600019687B681B683A680A431A607B681B689B
:103F70001A687B681B6842F001021A607B68202285
:103F800083F841207B68002283F84020002300E072
:103F9000022318460C37BD465DF8047B704780B499
:103FA00085B000AF786039607B6893F84130DBB250
:103FB000202B39D17B6893F84030012B01D10223AB
:103FC00033E07B68012283F840207B68242283F859
:103FD00041207B681B681A687B681B6822F001021D
:103FE0001A607B681B681B68FB60FB6823F47063C6
:103FF000FB603B681B02FA681343FB607B681B682D
:10400000FA681A607B681B681A687B681B6842F054
:1040100001021A607B68202283F841207B6800221D
:1040200083F84020002300E0022318461437BD46E1
:104030005DF8047B7047000080B584B002AF0123B7
:10404000FB71FA1DFF230093012346210348FFF76C
:1040500095FB00BF0837BD4680BD00BF141D002082
:1040600080B584B002AF1023FB71FA1DFF230093CB
:10407000012346210348FFF781FB00BF0837BD46F7
:1040800080BD00BF141D002090B583B002AFFFF7C4
:10409000E7FFB420FEF7C4FFFF2300930223174A73
:1040A00047211748FFF75CFC144B1B781A46154B49
:1040B0001A60144B1B681B02104A52781344114AB1
:1040C0001360104B1B681846FCF7FCF94FF03332B5
:1040D0000D4BFCF78BFB03460C4618462146FCF7BC
:1040E0006DFC0246094B1A60084B1B6807EE903ABC
:1040F000B0EE670A0437BD4690BD00BFB818002077
:10410000141D0020BC1800203333F33FB4180020E6
:1041100080B588B000AF2B4BDB6C2A4A43F002031A
:10412000D364284BDB6C03F00203BB60BB68254BF8
:10413000DB6C244A43F00403D364224BDB6C03F0B2
:1041400004037B607B684FF40043FB6001233B6109
:1041500001237B610223BB6107F10C0319461A4856
:10416000FDF732FC00224FF400411748FDF7AAFD8D
:10417000C023FB6001233B6101237B610223BB6100
:1041800007F10C0319461148FDF71EFC0022C0215F
:104190000E48FDF797FD00224FF400410A48FDF755
:1041A00091FD002280210948FDF78CFD0C2004F0D0
:1041B00057FE012280210548FDF784FD00BF20370E
:1041C000BD4680BD001002400004004800080048C1
:1041D00080B582B000AF78600B467B807B88194643
:1041E000786805F051F800BF0837BD4680BD000073
:1041F00080B582B000AF0346FB7100224021064823
:10420000FDF760FDFB1D01211846FFF7E1FF00BF30
:104210000837BD4680BD00BF0008004880B582B0A9
:1042200000AF0346FB71012240210648FDF74AFD1D
:10423000FB1D01211846FFF7CBFF00BF0837BD4625
:1042400080BD00BF0008004880B584B000AF0346C1
:10425000FB800023BB81FB881B0A9BB2DBB23B7354
:10426000FB88DBB27B73012240210648FDF72AFD63
:1042700007F10C0302211846FFF7AAFF00BF103711
:10428000BD4680BD0008004890B583B000AF04462D
:10429000084611461A462346FB800346BB800B4660
:1042A0007B8013463B802A20FFF7A2FFFB881B0A76
:1042B0009BB2DBB21846FFF7B1FFFB88DBB21846B2
:1042C000FFF7ACFF7B881B0A9BB2DBB21846FFF7F7
:1042D000A5FF7B88DBB21846FFF7A0FF2B20FFF776
:1042E00087FFBB881B0A9BB2DBB21846FFF796FF1D
:1042F000BB88DBB21846FFF791FF3B881B0A9BB2D5
:10430000DBB21846FFF78AFF3B88DBB21846FFF79F
:1043100085FF2C20FFF76CFF00BF0C37BD4690BD1A
:1043200080B584B000AF0346FB8000233B81FB884F
:104330001B0A9BB2DBB23B72FB88DBB27B72EF23C2
:10434000EF2200210020FFF79FFF0023BB810DE03B
:10435000BB895B00397A134AD154BB895B000133B6
:10436000797A104AD154BB890133BB81BB89B3F53B
:10437000107FEDD3012240210B48FDF7A3FC002361
:10438000FB8107E04FF490610648FFF721FFFB89AE
:104390000133FB81FB89632BF4D900BF1037BD4685
:1043A00080BD00BF640600200008004890B585B0BD
:1043B00000AF0446084611461A462346FB800346D2
:1043C000BB800B46FB701346BB70FB78203BFB7039
:1043D000FA88BB785B08DBB2C3F1F0039A4200F3C2
:1043E0000581BA88BB78C3F1F0039A4200F3FE80DE
:1043F000BB785B08DBB29AB2FB8813449BB2013BEB
:104400009CB2BB789AB2BB8813449BB2013B9BB26F
:10441000B988F8882246FFF737FFBB78102B02D007
:10442000BB78202B52D1BB78DB08DBB21A46BB78B5
:1044300003F00703DBB2002B14BF01230023DBB220
:104440001344DAB2BB785B08DBB212FB03F33B72B6
:1044500000237B7335E0BB78102B08D1FA787B7B87
:10446000654912010A4413441B78FB730BE0BB78C7
:10447000202B40F0BD80FA787B7B6049D2010A4452
:1044800013441B78FB730023BB7314E097F90F30C0
:10449000002B03DA5A4B1B887B8102E0594B1B88A7
:1044A0007B817B891846FFF7CFFEFB7B5B00FB73AC
:1044B000BB7B0133BB73BB7B072BE7D97B7B013312
:1044C0007B737A7B3B7A9A42C5D392E0BB780C2B04
:1044D00045D1BB78DB08DBB21A46BB7803F0070393
:1044E000DBB2002B14BF01230023DBB21344DAB28A
:1044F000BB785B08DBB212FB03F33B7200237B73D8
:1045000028E0FA78797B404813465B0013449B000F
:1045100003440B441B78FB730023BB7314E097F92F
:104520000F30002B03DA364B1B887B8102E0354BC2
:104530001B887B817B891846FFF786FEFB7B5B002F
:10454000FB73BB7B0133BB73BB7B052BE7D97B7B49
:1045500001337B737A7B3B7A9A42D2D349E0BB78B2
:10456000182B46D1BB781B01002B00DA0733DB1078
:104570003B7200237B7334E0FA78797B234813463F
:104580005B0013441B0103440B441B78FB737B7BD0
:1045900003F00103DBB2002B02D108237B7201E0A0
:1045A00004237B720023BB7314E097F90F30002BB8
:1045B00003DA134B1B887B8102E0124B1B887B8143
:1045C0007B891846FFF740FEFB7B5B00FB73BB7BE0
:1045D0000133BB73BA7B7B7A9A42E6D37B7B013390
:1045E0007B737A7B3B7A9A42C6D302E000BF00E03D
:1045F00000BF1437BD4690BDE8EA0008A8020108D4
:10460000E40A00200004002074E60008D8F0000846
:1046100080B485B000AF03460A46FB711346BB71F8
:104620000123FB6004E0FA79FB6802FB03F3FB6003
:10463000BB795A1EBA71002BF5D1FB6818461437A6
:10464000BD465DF8047B704780B586B000AFBA60A8
:104650001A460346FB810B46BB811346FB710023C0
:10466000BB750023FB7551E0FA79FB7DD31ADBB2F1
:10467000013BDBB219460A20FFF7CAFF0246BB68BE
:10468000B3FBF2F1254BA3FB0123DA0813469B0091
:1046900013445B00CA1A13467B75BB7D002B1DD1EA
:1046A000FA7DFB79013B9A4218DA7B7D002B13D10E
:1046B00097F820305B08DBB29AB2FB7D9BB212FB0D
:1046C00003F39AB2FB89134498B297F82030B98962
:1046D0002022FFF76BFE16E00123BB7597F8203010
:1046E0005B08DBB29AB2FB7D9BB212FB03F39AB27A
:1046F000FB89134498B27B7D3033DAB297F82030CF
:10470000B989FFF753FEFB7D0133FB75FA7DFB7919
:104710009A42A9D300BF1837BD4680BDCDCCCCCCC2
:1047200090B585B000AF0446084611461A462346A8
:10473000FB800346BB800B467B8013463B80FB8897
:10474000FB737A88FB8813447B803A88BB881344C8
:104750003B8022E0FA887B889A4207D3FB7BFB8070
:1047600097F820309AB2BB881344BB80BA883B8844
:104770009A421BD27B6A1A7897F82030B988F88859
:10478000FFF714FE97F820305B08DBB29AB2FB8883
:104790001344FB807B6A01337B627B6A1B787E2B30
:1047A00005D87B6A1B781F2BD4D800E000BF00BF60
:1047B0001437BD4690BD000090B583B000AF0446ED
:1047C000084611461A462346FB800346BB800B462B
:1047D0007B8013463B80FA887B881344F02B45DCB2
:1047E000BA883B881344F02B40DCFA887B8813445A
:1047F0009BB2013B9CB2BA883B8813449BB2013BFD
:104800009BB2B988F8882246FFF73EFD012240217D
:104810001848FDF757FA7B883A8802FB03F35B00E0
:10482000B3F5803F16DB4FF6FF71B869FFF7D0FC98
:10483000BB6903F57F43FF3379883A8811FB02F2A5
:1048400092B2520092B2013292B211461846FFF76C
:10485000BFFC0CE07A883B8812FB03F39BB25B0041
:104860009BB21946B869FFF7B3FC00E000BF0C37F4
:10487000BD4690BD0008004880B500AFFFF748FC7A
:104880000C2004F0EDFA1120FFF7B2FC0C2004F02C
:10489000E7FA3620FFF7ACFC0020FFF7BFFC3A2018
:1048A000FFF7A6FC6520FFF7B9FCB220FFF7A0FCDC
:1048B0000C20FFF7B3FC0C20FFF7B0FC0020FFF743
:1048C000ADFC3320FFF7AAFC3320FFF7A7FCB7208D
:1048D000FFF78EFC7220FFF7A1FCBB20FFF788FCDE
:1048E0003D20FFF79BFCC020FFF782FC2C20FFF748
:1048F00095FCC220FFF77CFC0120FFF78FFCC32052
:10490000FFF776FC1920FFF789FCC420FFF770FC45
:104910002020FFF783FCC620FFF76AFC0F20FFF77B
:104920007DFCD020FFF764FCA420FFF777FCA120DA
:10493000FFF774FCE020FFF75BFCD020FFF76EFC74
:104940000420FFF76BFC0D20FFF768FC1120FFF738
:1049500065FC1320FFF762FC2B20FFF75FFC3F2074
:10496000FFF75CFC5420FFF759FC4C20FFF756FC86
:104970001820FFF753FC0D20FFF750FC0B20FFF72A
:104980004DFC1F20FFF74AFC2320FFF747FCE120E6
:10499000FFF72EFCD020FFF741FC0420FFF73EFC80
:1049A0000C20FFF73BFC1120FFF738FC1320FFF72A
:1049B00035FC2C20FFF732FC3F20FFF72FFC442072
:1049C000FFF72CFC5120FFF729FC2F20FFF726FCD6
:1049D0001F20FFF723FC1F20FFF720FC2020FFF7FC
:1049E0001DFC2320FFF71AFC2120FFF701FC2920E2
:1049F000FFF7FEFBEF23EF2200210020FFF744FC2E
:104A00004FF6FF70FFF78CFC01224FF40041024883
:104A1000FDF758F900BF80BD0004004880B400AF26
:104A2000034B10221A6000BFBD465DF8047B70473F
:104A30000419002080B582B000AF03F0A1FD7860BA
:104A40007B68002B07D0074807F040FA064807F0BC
:104A5000B1FA7B6802E0FBF713FB7B681846083766
:104A6000BD4680BDB0D50008B8D5000880B582B07D
:104A700000AFFFF7D3FF2F4B2F4A1A6002F02AFF37
:104A800078607B68002B08D02C4807F01FFA796803
:104A90002B4807F01BFA7B6848E003F081FE00F02A
:104AA000B1FA78607B68002B07D0244807F00EFA33
:104AB000244807F07FFA7B6838E000F00DFC02F034
:104AC0008DF978607B68002B01D07B682EE002F0C6
:104AD00009FC78607B68002B01D07B6826E001F040
:104AE00097FD78607B68002B07D0144807F0EEF93B
:104AF000154807F05FFA7B6818E001F059F9786013
:104B00007B68002B07D00D4807F0E0F90F4807F04D
:104B100051FA7B680AE000F03DF800F021FB786074
:104B20007B68002B01D07B6800E000231846083723
:104B3000BD4680BDC0180020F0250020B0D500087B
:104B4000CCD50008E8D50008FCD5000810D6000830
:104B500098B500AF084BD3E900124B1C42F100049A
:104B6000054AC2E9003400F025F800F0A5F901F08B
:104B7000B1FB00BF98BD00BFC818002090B400AFC3
:104B8000034BD3E9003418462146BD4690BC70471C
:104B9000C818002080B400AF054B00221A60044BF7
:104BA0000A22DA8000BFBD465DF8047B704700BF73
:104BB000E018002098B500AF124B1A68124B1B6822
:104BC0009A420FD0104B1B680E4A13600F4BD3E96B
:104BD00000349AB20B4BDB8813449BB2013B9AB270
:104BE000084B9A80074B9A88084BD3E900349BB254
:104BF0009A4204D1034B00221A6000F0CBFE00BFA2
:104C000098BD00BFE01800200C190020C818002033
:104C100080B483B000AF78607B687A685A607B6844
:104C20007A681A6000BF0C37BD465DF8047B704798
:104C300080B483B000AF786039607B685A683B68A5
:104C40005A603B687A681A607B685B683A681A60E9
:104C50007B683A685A6000BF0C37BD465DF8047B3C
:104C6000704780B582B000AF786039607B681B68A0
:104C700039681846FFF7DCFF00BF0837BD4680BD26
:104C800080B483B000AF78607B685B687A68126834
:104C90001A607B681B687A6852685A607B680022D9
:104CA0005A607B6800221A6000BF0C37BD465DF871
:104CB000047B704780B483B000AF78607B685B682A
:104CC0007A689A420CBF01230023DBB218460C37E6
:104CD000BD465DF8047B704780B400AFFEE780B549
:104CE00082B000AF78600B467B807B689B8803F0C6
:104CF0000403002B1FD07B682833184600F090FF78
:104D00007B689B8823F004039AB27B689A807B6857
:104D10007A88DA807B689B8843F004039AB27B68C8
:104D20009A807B6803F128027B68DB88194610466D
:104D300000F04CFF02E07B687A88DA8000BF083719
:104D4000BD4680BD80B586B000AF786039603B68F5
:104D500003F01F03FB603B685B093B61FB68002BB2
:104D600002D13B69013B3B617B689B6B03F078425E
:104D70003B691A437B689A63354B9B881A46FB68EC
:104D80001344FB60FB6803F01F03FB607B689B6BB5
:104D900023F07842FB68DB061A437B689A632C4B4E
:104DA0001A68FB68DB001344BB60BB685B68BA68C9
:104DB0009A4206D17B6830331946B868FFF751FF35
:104DC00041E0BB685B68303B7B617B699B6B23F098
:104DD00078427B689B6B23F078439A4210D87B68BB
:104DE0009B6B03F078427B689B6B23F078417B6977
:104DF0009B6B23F07843CB1A1A437B689A6310E0CD
:104E00007B699B6B03F078427B699B6B23F0784155
:104E10007B689B6B23F07843CB1A1A437B699A63B8
:104E200008E07B695B6B303B7B617B693033BA6840
:104E30009A42CAD17B6903F130027B68303319464C
:104E40001046FFF70EFF00BF1837BD4680BD00BFFC
:104E5000F818002080B586B000AF78607B689B6B47
:104E6000DB0E7B61134B1A687B69DB0013443B61EB
:104E70007B685B6B3A699A4213D07B685B6B303B13
:104E8000FB60FB689B6B03F07842FB689B6B23F035
:104E900078417B689B6B23F078430B441A43FB6893
:104EA0009A637B6830331846FFF7EAFE00BF183775
:104EB000BD4680BDF818002080B584B000AF002347
:104EC000BB604F4B9B8801335A4203F01F0302F033
:104ED0001F0258BF53429AB2494B9A80484B1A68F6
:104EE000474B9B88DB0013447B607B685B687A6878
:104EF0009A4200F081807B685B68303BFB6070E029
:104F0000FB689B887B80FB689B6B23F07843002BBE
:104F100005D0FB689B6B5A1EFB689A6366E0FB68D2
:104F200030331846FFF7ACFE7B8803F008039BB2D2
:104F3000002B12D0FB689B8823F008039AB2FB6811
:104F40009A80FB6828331846FFF79AFEFB68002218
:104F50009A61FB680022DA6127E07B8803F48063B2
:104F60009BB2002B07D0FB689B8823F480639AB226
:104F7000FB689A8019E07B8803F400539BB2002BF6
:104F80000CD0FB6828331846FFF77AFEFB689B8835
:104F900023F400539AB2FB689A8006E0FB689B8872
:104FA00023F020039AB2FB689A807B8803F0020307
:104FB0009BB2002B11D1FB689B8843F004039AB28B
:104FC000FB689A80FB6803F12802FB68DB881946BE
:104FD000104600F0FBFD0123BB607B685B68303B43
:104FE000FB60FB6830337A689A4289D1BB68002B3A
:104FF00003D003F053FC00E000BF1037BD4680BD76
:10500000F818002080B584B000AF4C4B1B6801330A
:10501000542202FB03F37B60494B1B6879681846F6
:1050200002F070FC0246474B1A60464B1B68002B8F
:1050300001D1454B7DE0434B1B687A68002118463F
:1050400006F074FC4148FFF7E3FD4148FFF7E0FD3F
:105050004048FFF7DDFD0023FB6020E0394B1A6874
:10506000FB68542101FB03F3134401229A80354B62
:105070001A68FB68542101FB03F31344FA681A61B0
:10508000304B1A68FB68542101FB03F313442833A7
:1050900019462F48FFF7E5FDFB680133FB60FB680D
:1050A0000F2BDBD9082200212B4806F03FFC254BB3
:1050B0001A68224B1B68542101FB03F31344264A50
:1050C0001360254B1B68FA681A61234B1B68112279
:1050D0009A80214B1B682022DA8000F045FD4FF4B6
:1050E00080737B60164B1B687968184602F00AFCD7
:1050F000B860BB68002B01D1134B1AE07A6800211D
:10510000B86806F013FC154ABB681360134B002205
:105110009A800023FB6008E0B868FFF779FDFB6820
:105120000133FB60BB680833BB60FB681F2BF3D9FE
:10513000002318461037BD4680BD00BF041900206B
:10514000C01800200019002000020003781A002077
:1051500018190020F01800200C190020F818002061
:1051600080B588B000AF3B1D18220021184606F01C
:10517000DDFB0C4B7B604FF4A0633B610A4B7B6112
:105180001F233B813B1D1946084800F0E5F9F861F3
:10519000FB69002B01D0FB6900E000231846203793
:1051A000BD4680BDD94C000808D80008E81800208A
:1051B00080B500AF414B1B68DB681B68B3F1CC3F87
:1051C0000CD03F4806F082FE3C4B1B68596A3B4BB3
:1051D0001B681B691A463B4806F078FE374B5B6834
:1051E0001B681A46354B5B68DB689A420CD9334B17
:1051F0005B681B681946314B5B68DA682F4B5B684C
:105200009B68134499421AD92D4806F05FFE2B4B38
:105210005B68596A294B5B681B691A462A4806F085
:1052200055FE274806F052FE244B5B681B68194662
:10523000224B5B68DB681A46244806F047FE1F4B8A
:105240005B681A69224B1B7891B2214A5B001344B8
:105250000A465A801E4B1B785B0110331C4A1344CC
:10526000981D164B5B685B6A2022194606F03AFBD4
:10527000174B1B78164A5B011344353300221A7012
:10528000134B1B780133DAB2114B1A70104B1B7899
:105290000A2B09D10E4B00221A700D4B5B7863F07C
:1052A0007F03DAB20A4B5A700A4B1B68002B02D0FC
:1052B000084B1B68984700BF80BD00BF0C19002039
:1052C00084D6000814D800083CD8000860D800082C
:1052D00020190020F00A002080B500AF4FF4AB7217
:1052E0000021074806F022FB054B0A225A70054BA5
:1052F000054A1A60054B00221A6000BF80BD00BF3E
:1053000020190020EC0A0020B1510008F00A00200A
:1053100080B584B000AF78600C4B1A687B6854216C
:1053200001FB03F31344FB60FB685B69FA68126AD4
:1053300010469847064B00221A80FB681B691846E6
:1053400000F06EF900BF1037BD4680BD0019002087
:105350000819002080B588B000AF7860396000235C
:105360007B614FF0FF33BB617B68002B01D16C4B3D
:10537000D2E03B68002B01D16A4BCDE03B681B6952
:10538000002B01D1684BC7E03B681B68002B01D1A3
:10539000664BC1E03B689B881F2B01D9644BBBE087
:1053A0003B689B881F2B06D13B681B68614A934270
:1053B00001D05F4BB0E03B68DB685F4A01325F4978
:1053C000521A934201D95E4BA6E03B68DB68002B82
:1053D00003D13B684FF43472DA603B68DB68082124
:1053E000184603F03FF802463B68DA603B68DB682A
:1053F000B3F5987F01D2534B8EE0FAF767FEF86160
:1054000017E0514B5B68283B3B614F4B5B6818468C
:10541000FFF736FC3B69283319464C48FFF708FC78
:105420003B69DB681946454802F09DFA3B6900225A
:10543000DA604548FFF73EFC0346002BE1D04348C5
:10544000FFF738FC0346002B02D0414BBB615FE005
:105450003E4B5B68283B3B613C4B5B681846FFF763
:105460000FFCF869FAF73AFE3B691B697B613B6800
:10547000DB6808221946314802F065FAF860FB68DB
:10548000002B0BD1FAF722FEF8613B69283319464D
:105490002E48FFF7CDFB2F4BBB6139E03B68DB6843
:1054A000FA681946786903F023FAB8603B69BA686C
:1054B0001A603B689A683B691A62FA683B69DA606D
:1054C0003B68DA683B699A603B6900229A613B69F4
:1054D0000022DA613B6902229A803B689A883B6924
:1054E000DA803B681A683B695A613B694FF0FF32CA
:1054F000DA633B6900229A643B681A693B695A6225
:105500003B6900221A657B687A691A60002303E010
:10551000F869FAF7E3FDBB6918462037BD4680BD40
:10552000070200020102000205020002040200025A
:1055300003020002D94C0008FFFB0020F0250020E8
:105540002002000206020002F018002018190020B4
:10555000110200020002000380B586B000AF78603F
:10556000396000237B6139687868FFF7F3FE786162
:105570007B69002B01D07B6945E0254B1A687B686D
:105580001B68542101FB03F313443B61FAF79EFDB2
:10559000F8603B699B8823F002039AB23B699A80CA
:1055A0003B699B8843F004039AB23B699A803B694C
:1055B00003F128023B69DB881946104600F006FB20
:1055C00000F058FB0346283B124A5360124B1B68FD
:1055D000002B14D0114B1B88002B10D10D4B1A68D7
:1055E0000C4B5B689A420AD00C4B1B88002B06D1EF
:1055F000F868FAF773FD03F04BF9002303E0F8684D
:10560000FAF76CFD002318461837BD4680BD00BF71
:10561000001900200C19002014190020081900207E
:1056200080B586B000AF78604FF0FF337B616A4B86
:105630001B687A689A4201D1684BC8E0684B1B68C6
:105640007A689A4201D1674BC1E0674B1B687A6860
:105650009A4201D3654BBAE0FAF738FD3861644BE2
:105660001A687B68542101FB03F31344FB60FB6859
:105670009B887B817B8903F001039BB2002B07D0C1
:105680005C4B7B6100BF3869FAF728FD7B699EE0BF
:105690007B8903F010039BB2002B06D0564B1B886E
:1056A000002B02D0544B00221A807B8903F00403A4
:1056B0009BB2002B0CD0FB682833184600F0B0FAE0
:1056C000FB689B8823F004039AB2FB689A8010E081
:1056D0007B8903F008039BB2002B05D17B8903F47F
:1056E00000539BB2002B04D0FB6828331846FFF709
:1056F000C7FA7B8903F060039BB2002B02D0F868E5
:10570000FFF7A8FBFB689B8823F002039AB2FB68B3
:105710009A80FB689B8843F001039AB2FB689A80E9
:10572000FB684FF0FF32DA63FB6800229A6400F0F6
:10573000A1FA0346283B314A5360FB689B8803F07B
:1057400010039BB2002B2CD0FB68283319462C4841
:10575000FFF787FA264B1A68234B1B68542101FB7D
:1057600003F31344254A1360244B1B687A681A61BB
:10577000224B1B68FA6892889A80204B1B68FA6853
:10578000D268DA601D4B1B68FA68526A5A62FB687D
:1057900001229A803869FAF7A1FC03F079F8002316
:1057A00015E0FB6801229A80FB68283319461548EA
:1057B000FFF73EFAFB68DB681946134802F0D3F89E
:1057C000FB680022DA603869FAF788FC0023184683
:1057D0001837BD4680BD00BFE81800201402000243
:1057E000EC18002021020002041900200702000228
:1057F000001900200A020002081900200C190020DC
:10580000F018002018190020F025002080B584B081
:1058100000AF786002F070FF0346002B01D01D4BF3
:1058200033E01D4B1B88002B01D01C4B2DE07B6807
:10583000002B03D100F0AEF8034626E0FAF746FC51
:10584000F860174B1B682833184600F0E9F9144B31
:105850001B689A88124B1B6822F0040292B29A804D
:105860000F4B1B6879681846FFF76CFA0C4B1B68E6
:105870009A880B4B1B6842F0200292B29A80F8681B
:10588000FAF72CFC03F00AF8002318461037BD463F
:1058900080BD00BF0D020003081900200E020002A7
:1058A0000C19002080B586B000AFF860B9607A604E
:1058B000184B1B687B617B692833184600F0B0F9F0
:1058C0007B699B8823F004039AB27B699A807B6989
:1058D00028333B617B699A88BB689BB213439AB2B9
:1058E0007B699A803969F868FFF7BBF97B68B3F187
:1058F000FF3F0AD07B699B8843F040039AB27B69E3
:105900009A8079687869FFF71DFA00BF1837BD469D
:1059100080BD00BF0C19002080B582B000AF786058
:1059200039607B6828331846FFF7AAF97B689A88A4
:105930003B689BB2DB439BB213409AB27B689A8070
:105940007B689B8803F04003002B09D07868FFF741
:1059500081FA7B689B8823F040039AB27B689A8027
:105960007B689B8803F00203002B0FD17B689B8828
:1059700043F004039AB27B689A807B6803F12802A3
:105980007B68DB881946104600F020F900BF083715
:10599000BD4680BD80B582B000AF00237B60244B44
:1059A0001B681A69234B1B689A4201D3224B3AE0C9
:1059B0001F4B1B689B8803F00403002B01D10023BD
:1059C00031E0FAF783FB3860194B1B68DB88184617
:1059D00000F070F978607B68012B20D9144B1B68AC
:1059E00028331846FFF74CF9114B1B689A88104B67
:1059F0001B6842F0040292B29A800D4B1B6803F1BF
:105A000028020B4B1B68DB881946104600F0DEF8B5
:105A10003868FAF763FB02F041FF002303E03868BF
:105A2000FAF75CFB054B18460837BD4680BD00BF42
:105A30000C190020041900200702000210020002C5
:105A400080B584B000AF7860134B1B687A689A42C7
:105A500001D300231BE0114B1A687B68542101FB22
:105A600003F31344FB60FAF731FBB860FB689B88D3
:105A700003F001039BB2002B04D0B868FAF72EFBA9
:105A8000002304E0B868FAF729FBFB685B6A184654
:105A90001037BD4680BD00BF04190020001900204A
:105AA00080B483B000AF78607B687A685A607B68A6
:105AB0007A681A6000BF0C37BD465DF8047B7047FA
:105AC00080B483B000AF786039607B685A683B6807
:105AD0005A603B687A681A607B685B683A681A604B
